:02000000FFCD32
:101C00008091610080688093610081E08093610031
:101C100011248FEF94E09EBF8DBF84B714BE81FF67
:101C200097D18091F20080688093F2008091F20059
:101C300082618093F20071D185E08093810082E01F
:101C40008093C00088E18093C10086E08093C20049
:101C500082E28093C4008CE065D1259A96E020E36F
:101C60003CEF51E040E2309385002093840056BB66
:101C7000B09BFECF85B1842785B9A895915099F77F
:101C800088249924EE24FF245524539451E0652E92
:101C9000712C42E0A42E34EA432E22EA322E9DEC2F
:101CA000292E2FD1813461F42CD1182F41D1123833
:101CB00029F1113811F485E001C083E01AD116C171
:101CC000823411F484E103C0853419F485E038D1FD
:101CD0000DC1853579F415D1E82EFF2412D1082FD6
:101CE00010E0102F00270E291F29000F111F20D1EF
:101CF0007801FCC0863521F484E022D180E0DECF7B
:101D0000843609F093C0FDD090E0D82ECC24F9D0D1
:101D1000C80ED11CF6D0B82EE60100E011E0F1D0DB
:101D2000F80181938F012197D1F711BC8F2D99274D
:101D300082BD82B58695930102C0220F331F8A951A
:101D4000E2F7C40182239323892B59F4F6E4BF16EA
:101D500041F4822A932A84E98FBBE2E9EFBB0000B9
:101D60000000E6D0F5E4BF16D9F416C088EFE816F7
:101D700081E0F80608F0BAC0E1BC0894E11CF11C4F
:101D80008F2D992782BDC050DF4F888180BDE4E050
:101D9000EFBBAFBACF5FD040CC15DD0538F3A6C09E
:101DA000E114F10449F5809100012091010130E036
:101DB000322F222790E0282B392B30934501209396
:101DC0004401409108018091090190E0982F8827F3
:101DD00050E0842B952B909347018093460124502B
:101DE000304020930801232F3327209309018FEFE0
:101DF0008093000120920101E0E0F1E011BC8081BC
:101E000080BD51BC818180BDA1BC828180BD83E049
:101E100081BD838180BD8E2F8E0D81BD4FBA3FBAAB
:101E2000349681E0E034F80749F760C0843709F060
:101E30004FC067D090E0D82ECC2463D0C80ED11C00
:101E400060D0182F75D01534B1F4E7018601C1BDFB
:101E500021968D2F992782BD5FBA00000000E1E036
:101E6000C83FDE0710F08FEF01C080B542D00150AF
:101E7000104069F72AC0E7018601209729F4809174
:101E80004401909145011CC0C130D10529F48091D5
:101E90004401909145010FC0C830D10529F48091CB
:101EA0004601909147010CC0C930D10539F48091A9
:101EB000460190914701892F992702C0FE01849124
:101EC000219617D001501040C1F6EC0CFD1C0EC03D
:101ED000853739F42DD08EE10CD083E90AD08AE021
:101EE000EDCE813511F488E01DD022D080E101D003
:101EF000D8CE982F8091C00085FFFCCF9093C6006C
:101F000008958091C00087FFFCCF8091C00084FDC0
:101F100001C0A8958091C60008959AE29A95F1F7BC
:101F200008950895E0E6F0E098E1908380830895B5
:101F3000E8DF803219F088E0F5DFFFCF84E1D9CF08
:101F40001F93182FDEDF1150E9F7F2DF1F9108957C
:0C1F5000282E80E0E7DFE4E0FF27099482
:021FFA000005E0
:0400000300001C00DD
:00000001FF
