:100000000C9434000C9449000C9449000C94490061
:100010000C9449000C9449000C9449000C9449003C
:100020000C9449000C9449000C9449000C9449002C
:100030000C9449000C9449000C9449000C9449001C
:100040000C9449000C9449000C9449000C9449000C
:100050000C9449000C9449000C9449000C944900FC
:100060000C9449000C94490011241FBECFEFD8E036
:10007000DEBFCDBF11E0A0E0B1E0E4E4F5E002C0F6
:1000800005900D92A834B107D9F70E944B000C944B
:10009000A0020C94000080EB8093660081E88093BE
:1000A0006100809361000E948D0280E091E064E233
:1000B00071E00E941002FFCF84B18C6284B980E1AC
:1000C0008CBD1DBC8CB580648CBD08951CBC08958E
:1000D0008EBDCE99FECF84E489BB08958EBDCE99A6
:1000E000FECF8EB594E499BB08958EBD8EBDCE999A
:1000F000FECF2EB5CE99FECF4EB530E084E489BB5D
:10010000942F80E0282B392BC9010895BC012A9A2D
:100110002A9885E08EBDCE99FECF84E489BB21E08C
:1001200030E044E406C01EBCCE99FECF8EB549BB7C
:10013000282F20FDF8CF2A9A80E000008F5F8831B9
:10014000E1F72A988FE98EBDCE99FECF84E489BB72
:1001500020E030E094E41EBCCE99FECF8EB599BB72
:10016000FB01E20FF31F80832F5F3F4F23303105E8
:1001700091F72A9A0895BC012A9A2A9885E08EBDA3
:10018000CE99FECF84E489BB81E024E405C01EBC87
:10019000CE99FECF8EB529BB80FDF9CF2A9A80E09B
:1001A00000008F5F8831E1F72A9880E98EBDCE99F3
:1001B000FECF84E489BB1EBCCE99FECF84E489BB0C
:1001C0001EBCCE99FECF84E489BB1EBCCE99FECF67
:1001D00084E489BB20E030E044E41EBCCE99FECF2D
:1001E0008EB549BBFB01E20FF31F80832F5F3F4FAA
:1001F0002230310591F72A9A0895982F2A9A2A9841
:1002000083E08EBDCE99FECF84E489BB1EBCCE991F
:10021000FECF84E489BB1EBCCE99FECF84E489BBAB
:100220009EBDCE99FECF84E489BBFA0190E024E420
:1002300007C01EBCCE99FECF8EB529BB81939F5FB0
:100240009617B8F32A9A08952A9A2A9886E08EBDBE
:10025000CE99FECF84E489BB2A9A80E000008F5FAC
:100260008831E1F72A9880E28EBDCE99FECF84E4F2
:1002700089BB1EBCCE99FECF84E489BB1EBCCE993F
:10028000FECF84E489BB1EBCCE99FECF84E489BB3B
:100290002A9A80E000008F5F8831E1F72A9885E094
:1002A0008EBDCE99FECF84E489BB81E094E405C085
:1002B0001EBCCE99FECF8EB599BB80FDF9CF2A9A90
:1002C0000895982F2A9A2A9886E08EBDCE99FECF5F
:1002D00084E489BB2A9A80E000008F5F8831E1F7CF
:1002E0002A9882E08EBDCE99FECF84E489BB1EBCE5
:1002F000CE99FECF84E489BB1EBCCE99FECF84E4A8
:1003000089BB9EBDCE99FECF84E489BBFA0190E003
:1003100024E407C080818EBDCE99FECF29BB9F5FAC
:1003200031969617B8F32A9A80E000008F5F8831E3
:10033000E1F72A9885E08EBDCE99FECF84E489BB93
:1003400081E094E405C01EBCCE99FECF8EB599BB6A
:1003500080FDF9CF2A9A0895982F2A9A2A988BE03F
:100360008EBDCE99FECF84E489BB1EBCCE99FECF54
:1003700084E489BB1EBCCE99FECF84E489BB9EBDBC
:10038000CE99FECF84E489BB1EBCCE99FECF84E417
:1003900089BBFA0190E024E407C01EBCCE99FECFD1
:1003A0008EB529BB81939F5F9617B8F32A9A08955B
:1003B0000F931F93CF93DF93982FEA012A9A2A98DD
:1003C0008BE38EBDCE99FECF84E489BB1EBCCE9953
:1003D000FECF84E489BB1EBCCE99FECF84E489BBEA
:1003E0009EBDCE99FECF84E489BB1EBCCE99FECFC4
:1003F00084E489BB8DB584608DBD062F069510E021
:1004000007C080E00E9475008883998322961F5F51
:100410001017B8F32A9ADF91CF911F910F91089589
:10042000EF92FF920F931F93CF93DF937C018B0189
:100430000E945C00C8010E948600F80180810E9431
:100440009802F80181810E949802F80182810E943D
:100450009802F80110821182C8010E94BB00F801C5
:1004600080810E949802F80181810E949802F8011F
:100470001082118280E060E1A8010E94FD00C0E0CE
:10048000D0E0F801EC0FFD1F80810E9498022196B8
:10049000C031D105B1F70E94240180E060E1A801DC
:1004A0000E94FD00C0E0D0E0F801EC0FFD1F80814C
:1004B0000E9498022196C031D105B1F780E060E139
:1004C000A7010E94610180E060E1A8010E94AC01E7
:1004D000C0E0D0E0F801EC0FFD1F80810E9498027F
:1004E0002196C031D105B1F780E060E1A8010E94FA
:1004F000D801C0E0D0E0F801EC0FFD1F80810E9420
:1005000098022196C031D105B1F71CBCDF91CF9183
:100510001F910F91FF90EF90089583E38093C400A3
:100520001092C500E1ECF0E080818860808308953E
:10053000982F8091C00085FFFCCF9093C60008954E
:04054000F894FFCF5D
:1005440000112233445566778899AABBCCDDEEFFAF
:100554000F1E2D3C4B5A69788796A5B4C3D2E1F09F
:10056400FFFFFFFFFFFFFFFFFFFFFFFFFFFFFFFF97
:10057400FFFFFFFFFFFFFFFFFFFFFFFFFFFFFFFF87
:08058400FFFFFFFFFFFFFFFF77
:00000001FF
