:100000000C9434000C943E000C943E000C94400080
:100010000C943E000C943E000C943E000C943E0068
:100020000C943E000C943E000C943E000C943E0058
:100030000C943E000C943E000C943E000C943E0048
:100040000C943E000C943E000C943E000C943E0038
:100050000C943E000C943E000C943E000C943E0028
:100060000C943E000C943E0011241FBECFEFD8E04C
:10007000DEBFCDBF0E944B000C9445010C940000E4
:100080001F920F920FB60F92112400000F900FBE17
:100090000F901F90189580EB809366000E94590086
:1000A0000E9483000E94B7000E94E1000E941B0191
:1000B000F5CF15B88FEF84B940E050E061E070E013
:1000C000E1E09B01042E02C0220F331F0A94E2F7E5
:1000D00020936B000000000025B9D89BFECFEBBB3E
:1000E0000000000095B1822F8095892385B9D89BA7
:1000F000FECFEBBB4F5F5F4F4830510511F71092B9
:100100006B0014B808958091F00080688093F0002F
:100110008091F00081608093F00018B88FEF87B96C
:1001200040E050E061E070E0E2E09B01042E02C09C
:10013000220F331F0A94E2F720936C0000000000A6
:1001400028B9D99BFECFEBBB0000000098B1822FED
:100150008095892388B9D99BFECFEBBB4F5F5F4F5A
:100160004830510511F710926C0017B808951BB86C
:100170008FEF8AB940E050E061E070E0E4E09B017D
:10018000042E02C0220F331F0A94E2F720936D0061
:10019000000000002BB9DA9BFECFEBBB0000000093
:1001A0009BB1822F809589238BB9DA9BFECFEBBB65
:1001B0004F5F5F4F4830510511F710926D001AB82C
:1001C00008958091F00080688093F0008091F000A5
:1001D00082608093F00084B7806884BF84B78068B1
:1001E00084BF1EB88FEF8DB940E050E061E070E051
:1001F000E8E09B01042E02C0220F331F0A94E2F7AD
:1002000020937300000000002EB9DB9BFECFEBBBF8
:10021000000000009EB1822F809589238EB9DB9B60
:10022000FECFEBBB4F5F5F4F4830510511F7109287
:1002300073001DB8089514BA8FEF83BB40E050E0FF
:1002400061E070E0E0E19B01042E02C0220F331F49
:100250000A94E2F7209374000000000024BBDC9BAA
:10026000FECFEBBB0000000094B3822F8095892362
:1002700084BBDC9BFECFEBBB4F5F5F4F483051052B
:0E02800011F71092740013BA0895F894FFCF8E
:00000001FF
