:100000000C9462000C9423030C94DC040C94DF0425
:100010000C94E2040C94E5040C94E8040C94EB04B6
:100020000C94EE040C94F1040C94F4040C94F70476
:100030000C94FA040C94FD040C9400050C94030534
:100040000C9406050C9409050C940C050C940F05F2
:100050000C9412050C9415050C9418050C941B05B2
:100060000C941E050C9421050C9424050C94270572
:100070000C942A050C942D050403090412034C006A
:1000800047005400490043002000200020001203D4
:100090005600550070006400610074006500200087
:1000A00012011001FF000008C027DC150001010249
:1000B0000001090212000101008032090400000061
:1000C0000000000011241FBECFEFD8E0DEBFCDBF7F
:1000D00011E0A0E0B1E0E6EEFAE002C005900D927A
:1000E000A430B107D9F711E0A4E0B1E001C01D923E
:1000F000AA33B107E1F70E94E4000C9471050C9457
:1001000000008F9380E88093F20085E88093F200EE
:100110008F9180E090E000000196883C9105D9F72E
:100120008F9380E88093F20081E88093F2008F91B2
:10013000F8941DBA1092690085B7806185BF8AB1B5
:100140008B7E8AB98BB18B7E8BB9DBC50895DC01C0
:10015000262F30910C0190E008C0E92FE30FF0E06A
:10016000E050FE4F8D9180839F5F9217B0F3822FF6
:10017000830F80930C01682F70E080910A019091A9
:100180000B016817790720F4283010F080E00895FB
:1001900080910D01833079F48091080190910901DB
:1001A0002CE08030920720F040E052E00E94700482
:1001B00010920D0102C0823011F081E0089584E0B8
:1001C00080930D0181E00895589A000090E02FEF90
:1001D00089B128239F5F9034D9F71BB820FD02C056
:1001E0001BB80EC587B18C7F87B98F9380E8809349
:1001F000F20085E88093F2008F918F9380E88093DE
:10020000F20085EA8093F2008F9180E8809361008C
:10021000809361000E94F401549A80E0A8958F5F5A
:100220008A30E1F75498789410920D0110920E01E3
:100230000E94FB0180910D018430B9F4809111017D
:100240008823B1F780910801909109012CE080305A
:100250009207D8F060910A0170910B01769567952D
:1002600040E052E00E94700410C0813009F7809194
:1002700011018823E9F680910801909109012CE091
:100280008030920710F00E94980410920D01D0CF98
:10029000FF920F931F93AC01F62E062F10E0809172
:1002A000080190910901B8010E94B30480910801EE
:1002B00090910901800F911F90930901809308018B
:1002C00080910A0190910B01801B910B90930B017F
:1002D00080930A018F2D1F910F91FF900895FC01CB
:1002E0008181853049F1863040F48330A9F0843033
:1002F00008F5823009F06FC00AC08A3009F43FC0A7
:100300008B3009F44EC0863009F065C02BC089E4FB
:100310008093040121E060C081E080930D0193810E
:1003200080E0228130E0822B932B9093090180930F
:10033000080151C082E036C0938180E0228130E024
:10034000822B932B9093090180930801978180E081
:10035000268130E0822B932B90930B0180930A012E
:100360002FEF3AC081E080930E018CEF9FE162E0B5
:1003700070E044E051E00E94B30424E02DC093817A
:1003800080E0228130E0282B392B30930901209323
:1003900008018CE020303807F0F0C9010E94980471
:1003A0001AC083E080930D01938180E0228130E0C8
:1003B000822B932B9093090180930801978180E011
:1003C000268130E0822B932B90930B0180930A01BE
:1003D00010920C01C5CF20E084E091E090932001C1
:1003E00080931F01822F0895E9E6F0E08081836009
:1003F0008083E89A08951F93CF93DF936091210142
:10040000635067FD9BC080911E01CCE0D0E0C81B0B
:10041000D109CC5DDE4F80911D018D3209F07BC08A
:10042000683009F089C083EC809312018AE58093DB
:10043000020110920F018881807641F0CE010E9466
:100440006F01282F8F3F09F455C05BC09A8110922D
:100450001B018981882321F410921C0122E043C0F2
:10046000853019F4909322013DC0863061F58B816F
:10047000813019F480EA90E016C0823019F482EBE2
:1004800090E011C08330D1F48A81882341F488E759
:1004900090E09093200180931F0124E010C08130F0
:1004A00041F48CE790E09093200180931F0122E1BA
:1004B00006C0823019F48EE890E0F5CF20E080E4A9
:1004C00080930F011EC0883021F421E083E291E087
:1004D0000CC0893019F49093230104C08A3011F4C0
:1004E00021E001C020E08BE191E090932001809316
:1004F0001F0107C0888187FD2E8180E880930F014E
:1005000006C08F81882319F48E81821708F0822F0C
:100510008093030111C080910F0187FF0DC0CE01B0
:100520000E94A7008F3F21F48EE18093020104C056
:10053000882311F010920301109221018091020191
:1005400084FF5AC0809103018F3F09F455C0182FD2
:10055000893008F018E0811B80930301809112011B
:1005600098E8892780931201112399F180910F0156
:1005700087FF09C083E191E0612F0E944801182F95
:100580008930A0F526C020911F013091200186FFFF
:100590000DC0A3E1B1E080E090E0F901E80FF91FA0
:1005A000E491ED9301961817C1F708C0912FD90176
:1005B000E3E1F1E08D9181939150E1F71150812FAA
:1005C00090E01F5F0196820F931F9093200180930C
:1005D0001F0183E191E0612F0E941F03612F6C5F77
:1005E0006C3041F08FEF8093030104C08FEF809354
:1005F00003016EE16093020194E189B1847131F4E9
:100600009150D9F71092220110921001DF91CF91F1
:100610001F910895A82FB92F80E090E041E050EAA3
:10062000609530E009C02D9182279795879510F04D
:1006300084279527305EC8F36F5FA8F30895EADF3B
:100640008D939D930895CF93CFB7CF93C3954C9B34
:10065000E9F74C9B09C04C9B07C04C9B05C04C9BC9
:1006600003C04C9B01C0B7C0DF930F93C0911E0124
:10067000DD27CC5DDE4F4C9B03C00F91DF91E9CFAE
:100680000F912F930F931F930000000009B12FEFDC
:1006900004FB20F94F933F930000000019B14FEF86
:1006A000012704FB21F93BE0000039C04E7F012FF8
:1006B00019B1216000002FC0102F4D7F2260000073
:1006C00009B100002FC04B7F2460012F000019B139
:1006D000000030C019B1477F286000002EC04F7E57
:1006E00009B1206100002FC04F7D19B120620000C8
:1006F00032C04F7B09B12064000035C0422709B1E8
:10070000000049934FEF0000102714FB20F919B1A6
:100710001471E9F1297F51F2012704FB21F909B194
:10072000237F51F2315078F1102714FB22F919B1CF
:10073000277E49F2012704FB23F92F7C59F209B1E6
:10074000102714FB24F92F7951F20000000019B191
:10075000012704FB25F92F7339F20000000009B1CD
:10076000102714FB26F9223020F20000000019B1F6
:10077000012704FB27F9243008F64F77206819B1C8
:1007800000000000F8CF11E01CBB002719C03B504F
:100790003195C31BD04011E01CBB08810000033C15
:1007A000F1F00B34E1F02091100119810000110FDC
:1007B0001213EBCF093641F10D3211F0013E29F74A
:1007C000009311013F914F911F910F912F91DF9154
:1007D000CCB3C0FD3BCFCF91CFBFCF911895209127
:1007E0001101222379F310912101112311F53430E5
:1007F0001AF13093210120931D0110911E013BE05D
:10080000311B30931E0118C00091210101308CF47E
:100810000AE53091020134FD12C000930201C2E1E9
:10082000D1E011C02795C8F45150C9F4220F00003F
:10083000F9CF4AE5000004C042ED000001C0432F9B
:10084000C4E1D0E032E01AB114615C9A00001AB938
:100850000BB120E414E15F930000012756E00BB9CF
:10086000279528F4515029F4220F0000F8CF0127D2
:1008700056E000003B5A0BB9A8F2279530F45150CE
:1008800031F4220F00000000F8CF012756E0279531
:100890000BB920F4515021F4220FF9CF012756E073
:1008A0002991000033230BB909F0BCCF0B7E1091C6
:1008B0002201110FC6510BB9D04011F01093100155
:1008C00011E01CBB00611AB11B7E402F4B7E5F9173
:1008D00000000000000000000BB91AB94BB972CF3C
:1008E000DC01FA014FB7F89430E016C0F999FECF59
:1008F000CD018E7F92BD81BD0196208120BD81BD3D
:10090000218120BD3296DC0111968FB38870806AF8
:100910008FBBFA9AF99A3F5F832F90E0861797076B
:1009200028F3F999FECF8FB388708FBB4FBF08951E
:100930002FB7F894F999FECF92BD81BD80E98FBBA6
:10094000FA9AF99AF999FECF1FBA2FBF08952FB7D7
:10095000F999FECF92BD81BD80E98FBBF89A000066
:10096000000080B50895CF92DF92EF92FF920F932F
:100970001F93CF93DF937C016B01C0E0D0E00DC0EB
:100980008A010E5F1F4FC701BA010E94680582E00D
:1009900090E0E80EF91E2196A801CC15DD0580F344
:1009A000DF91CF911F910F91FF90EF90DF90CF904B
:1009B00008950C94020608950C94040608950C946E
:1009C000060608950C94080608950C940A060895E6
:1009D0000C940C0608950C940E0608950C941006C1
:1009E00008950C94120608950C94140608950C941E
:1009F000160608950C94180608950C941A06089586
:100A00000C941C0608950C941E0608950C94200660
:100A100008950C94220608950C94240608950C94CD
:100A2000260608950C94280608950C942A06089525
:100A30000C942C0608950C942E0608950C94300600
:100A400008950C94320608950C94340608950C947D
:100A5000360608950C94380608950C943A060895C5
:100A60004091F20040774068842B8093F20080939D
:100A7000F20008954091F2004F714068880F880F8E
:100A8000880F880F880F842B8093F2008093F200E8
:100A900008954091610040764068842B8093610006
:100AA0008093610008954091F2004F764068880F6E
:100AB000880F880F880F842B8093F2008093F200B8
:100AC0000895982F98609093600080936000089537
:100AD000E82FF92F85919491E62FF72F819390833A
:060AE0000895F894FFCF19
:040AE60000065AFFAD
:00000001FF
