:100000000C9434000C9446000C9446000C9446006A
:100010000C9446000C9446000C9446000C94460048
:100020000C9446000C9446000C9446000C94460038
:100030000C9446000C9446000C9446000C94460028
:100040000C947A000C9446000C9446000C944600E4
:100050000C9446000C9446000C9446000C94460008
:100060000C9446000C94460011241FBECFEFD8E03C
:10007000DEBFCDBF11E0A0E0B1E001C01D92A33012
:10008000B107E1F70E9467000C94AD000C940000EA
:10009000ECEEF0E080E4808315BC80EA84BD8AB198
:1000A00080668AB916BC8FE787BD8FE388BD87E07D
:1000B00085BB81E080936E0083E28FBD84B5836051
:1000C00084BD89E185BD808181608083089580EB56
:1000D0008093660081E880936100809361000E94B4
:1000E0004800109201011092000180E48093020107
:1000F0007894FFCF1F920F920FB60F9211242F9377
:100100008F939F93809100019091010101969093AC
:1001100001018093000180910001909101018F5FA6
:100120009B4099F41092010110920001809102010C
:100130008F5F80930201809102018D3718F083E078
:10014000809302018091020188BD9F918F912F9130
:0E0150000F900FBE0F901F901895F894FFCFE0
:00000001FF
