:020000020000FC
:100000000C94A100189518951895189518951895A1
:100010001895189518951895189518951895189578
:100020001895189518951895189518951895189568
:100030001895189518951895189518951895189558
:100040001895189518951895189518951895189548
:100050001895189518951895189518951895189538
:1000600018951895189518951CE400E806BF16BF5A
:1000700008959801232F22BD01BDF89A00000000C9
:1000800000B508950F70006810E8109361000093A8
:10009000610008950091F200036010E81093F200EF
:1000A0000093F2000091F2000F7910E81093F20033
:1000B0000093F2000000000001E0E4DF089500E09A
:1000C0000093C00006E00093C20008E10093C10065
:1000D00000E00093C50003E30093C400089510916D
:1000E000C000212F25FFFBCF0093C60008950E947A
:1000F0004A000E945F000E94340008959A938A93F8
:100100000E94770005E50E946F000AEA0E946F00D6
:1001100080E090E08C3000E09007A4F78C010E9412
:1001200039000E946F000FEF11EE24E001501040E3
:100130002040E1F700C000000196ECCF0000889558
:10014000FECF0FE90DBF01E00EBFC0E8D1E00E9475
:10015000AF000E947E000E949E000C949E0001E071
:02016000089500
:107800000001020304050708090A0B0C000102032A
:1078100004050708090A0B0C000102030405070808
:04782000090A0B0C3A
:027BFE00005530
:0400000300000142B6
:00000001FF
