:02000000FFCD32
:101C00000F92CDB7DEB711248FEF94E09EBF8DBF4A
:101C100084B714BE81FF72D18091F20080688093F6
:101C2000F2008091F20082618093F2004CD185E055
:101C30008093810082E08093C00088E18093C1009E
:101C400086E08093C20089E18093C4008CE040D19B
:101C5000259A26E08CE09FEF51E040E290938500CA
:101C60008093840056BBB09BFECF35B1342735B985
:101C7000A895215099F7EE24FF24CC24DD24BB2421
:101C8000B394B1E04B2E512C12E0A12E03E0902E24
:101C900084EA882E92EA792E66246A9408D18134E7
:101CA00069F405D189831AD18981823811F181388B
:101CB00011F485E001C083E0F3D0EFC0823411F469
:101CC00084E103C0853419F485E010D1E6C0853580
:101CD00061F4EDD0082F10E0EAD090E0F82EEE2469
:101CE000E02AF12AEE0CFF1CD7C0863521F484E0EF
:101CF000FDD080E0E1CF843609F070C0D8D0D7D0D5
:101D0000082FD5D0182F212CE1E03E2ED0D0F101A4
:101D100081931F010E17D1F711BC8F2D992782BD1A
:101D200082B58695920102C0220F331F8A95E2F791
:101D3000C9019601282339232115310541F4C82A08
:101D4000D92A84E98FBB82E98FBB00000000C6D08E
:101D5000153409F4A2C0E114F10439F540910101F0
:101D600050E0542F44278091000190E0482B592BDC
:101D700050934501409344012091090130E0322FF6
:101D800022278091080190E0282B392B30934701BE
:101D9000209346014450504040930801509309015C
:101DA000609200018DEC80930101E0E0F1E011BC54
:101DB000808180BDB1BC818180BDA1BC828180BD9C
:101DC00091BC838180BD8E2F8E0D81BD8FBA7FBA6D
:101DD000349631E0E034F30751F75FC0843709F0FF
:101DE0004EC065D064D0182F62D0898377D08981A6
:101DF000853481F4170109C021BC0894211C311CD1
:101E0000BFBA0000000080B54BD0822D8E1981171B
:101E100098F332C0012F17012114310429F4809165
:101E20004401909145011EC081E02816310429F437
:101E3000809144019091450111C0E8E02E163104D3
:101E400029F480914601909147010CC0F9E02F16CA
:101E5000310431F48091460190914701892F02C0ED
:101E6000F10184910894211C311C1AD00150A1F673
:101E70000894E11CF11C1150E10EF11C0EC08537D5
:101E800039F42CD08EE10CD083E90AD08AE014CF4B
:101E9000813511F488E01CD021D080E101D0FECE44
:101EA0009091C00095FFFCCF8093C600089580916B
:101EB000C00087FFFCCF8091C00084FD01C0A895C1
:101EC0008091C60008959FE19A95F1F708950895CD
:101ED000E0E6F0E098E1908380830895E8DF8032C7
:101EE00019F088E0F5DFFFCF84E1DACFCF93C82F78
:101EF000DEDFC150E9F7F2DFCF910895282E80E0B0
:081F0000E7DFE4E0FF2709948C
:021FFA000005E0
:0400000300001C00DD
:00000001FF
