:020000020000FC
:100000000C94BE0118951895189518951895189583
:100010001895189518951895189518951895189578
:100020001895189518951895189518951895189568
:100030001895189518951895189518951895189558
:100040001895189518951895189518951895189548
:100050001895189518951895189518951895189538
:1000600018951895189518951091AD001F7B109351
:10007000AD00043051F41091CC001093C8001091E1
:10008000AD0010641093AD000BC0023029F4109144
:10009000CE001093C80004C01091CD001093C8008A
:1000A00010917C001F7310937C00043029F40091A0
:1000B0007C0000937C00089510E4019F00917C0077
:1000C000002900937C00089500E100937A0000E08D
:1000D00000937C0001E000937A0002E0C5DF00910C
:1000E0007A00006800937A00089500917A00006415
:1000F00000937A0000917A00102F16FDFBCF20911B
:10010000780030E01091790000E0022B132B089565
:1001100000917D00006200937D00E7DFA801569505
:10012000479500917D000F7D00937D00DEDF9801F3
:1001300036952795240F351F47E089010E94D2018B
:10014000201B310B8901089510917C00107E1093C3
:100150007C000F7110917C00102B10937C00D8DF75
:1001600008950091F200076010E81093F2000093E8
:10017000F20003EF11E001501040E9F700C0000069
:100180000091F2000F79006210E81093F2000093E2
:10019000F200000000000FEF04BF0FEF04BF00915A
:1001A000F000026010E81093F0000093F000089552
:1001B0001091EE00136000E80093EE001093EE0043
:1001C00000E00093C00006E00093C20008E1009345
:1001D000C10000E00093C5000CE00093C400089546
:1001E0001091C000212F25FFFBCF0093C60008957A
:1001F000F80103C00081F4DF319600810023D1F7BC
:1002000008950E9400026297D8018E010A5E1F4F76
:100210000883198303C00C91E3DF11960C9100232E
:1002200009F464C00C910532B1F711960C91045693
:10023000C9F10F5019F00550A9F054C0E881F981B7
:1002400080819181088119810E5F1F4F0883198376
:1002500004C0FC010081C4DF0196FC010081002381
:10026000C1F742C0E881F98120813181088119817B
:100270000E5F1F4F088319833A932A9320EA31E0D7
:100280008E010C5F1F4F0E9453032296CE010296EF
:1002900004C0FC010081A4DF0196FC010081002361
:1002A000C1F722C0E881F98120813181088119815B
:1002B0000E5F1F4F088319833A932A9323EA31E094
:1002C0008E010C5F1F4F0E9453032296CE010296AF
:1002D00004C0FC01008184DF0196FC010081002341
:1002E000C1F702C00C917CDF119698CF6296E4E0D2
:1002F0000C9411020E94B1000E94D8000E94640078
:1003000008950E947A0106EA11E00E94F8000DEBC0
:1003100011E00E94F80006EA11E00E94F8000AECE1
:1003200011E00E94F80000E00E94A4001A930A93D2
:1003300004EE11E00E940101229601E00E94A40057
:100340001A930A9304EE11E00E940101229607E03D
:100350000E94A4001A930A9304EE11E00E94010186
:1003600022960FE71AE126E0015010402040E1F705
:1003700000C00000D4CF00008895FECF0FE90DBF6C
:1003800001E00EBFC0E8D1E00E941A02002311F084
:100390000E9428020E9481010E94BB010C94BB01B3
:1003A000169507954A95E2F7089500241124100147
:1003B000E0E2001F111F221F331FEA9572F0001C9C
:1003C000111C221C331C041615062606370688F35A
:1003D000041A150A260A370AECCFA001B1010095CC
:1003E0001095209530950895FA92EA92DA92CA9281
:1003F000BA92AA929A928A927A926A925A924A925D
:10040000BA93AA939A938A930895FF84EE84DD8425
:10041000CC84BB84AA84998488847F806E805D802C
:100420004C80BB81AA8199818881F0E0EC0FFD1F8F
:10043000EF01089501E0089520E02D930150104050
:10044000E1F7089525912D9301501040D9F70895B3
:100450008CED96E0FC0105911491FC013296A5917A
:10046000B491FC01349625913491422F432B19F01D
:10047000F901E8DF01C0E0DF069616E0823E910751
:1004800048F308950E94F40126972C833D834A8304
:100490005B836883798378018824992402C0DFD044
:1004A000ECD0F70101917F01053239F00023B9F753
:1004B00084012696E0E10C94050210E040E0008102
:1004C000085631F0045039F441E0E40EF11E03C047
:1004D00011E0E10EF41EF701A1907F01212F2170A0
:1004E000042F017031E00327202B0A2D0855A9F1B4
:1004F0000B5049F00A9511F10B50A1F0045041F056
:10050000055059F102C0AED0A080A9D00A2DC8CFA5
:10051000A9D0A2D0FC010191CF01002311F29FD0FC
:10052000ACD0F8CF08E0C02E222319F0442400E814
:1005300019C044245524662400E41BC00AE0C02EE0
:10054000222321F000E1402E07E20CC044240AECF3
:10055000502E0AE9602E0BE30CC000E1C02E2223CE
:1005600029F04424502E6624772404C044245524C2
:100570006624702EE881F9812081318110FB56F4C8
:1005800004E6A01629F4F90189010E5F1F4F11C07E
:10059000890115C040FB36F489010C5F5BD0A28154
:1005A000B38111C004E6A016890149F40E5F1F4F04
:1005B000F90152D0A92FAA0FAA0BBA2F04C00E5FBF
:1005C00049D0A0E0B0E0E881F9810083118304E61E
:1005D000A01661F4BB2352F49095A095B095819537
:1005E0009F4FAF4FBF4F3BD00DE247D084159505CD
:1005F000A605B70538F423D002E04016104020408D
:100600003040A0F716D0005D402F0A3330F008E7E5
:10061000A01611F4495D01C0495F21D0042F2DD0EF
:1006200008D0CA01DB010BD0012B022B032B51F7A1
:1006300038CF8C019D01A201B3010C94D5014C2D42
:1006400050E060E070E0820193010E94D501280132
:10065000390108951F4FF9018081918108952A8100
:100660003B810895E881F9810081118198012E5F15
:100670003F4F20833183F8010895EC81FD81099576
:1006800001E0800E00E0901E08951B2F6A2FF901F3
:10069000A081B181AD014F5F5F4F408351830C93C7
:1006A000A62FB12F0895BA93AA9324970A831B8388
:1006B00089019E012A5F3F4F28833983BE01AE0125
:1006C0004E5F5F4F25E433E00E944202AA81BB8166
:1006D00020E02C932496A991B99108954900A00196
:1006E000E2062558002564002A2A2A2A2A2A2A2ACC
:1006F0002A2A2A2A2A2A2A2A2A2A2A2A2A0A00735B
:10070000657269616C20696E69740A003D3D3D3D0A
:100710003D3D3D3D3D3D3D3D3D3D3D3D3D3D3D3D09
:0B0720003D3D3D3D0A0025640A0D0030
:040000030000037C7A
:00000001FF
