:100000000C9440000C9452000C9452000C9452003A
:100010000C9452000C9452000C9452000C94520018
:100020000C9452000C9452000C9452000C94520008
:100030000C9452000C9452000C9452000C945200F8
:100040000C9452000C9452000C9452000C945200E8
:100050000C9452000C9452000C9452000C945200D8
:100060000C9452000C9452000C9400000C9400006C
:100070000C9400000C9454000C9400000C940000AC
:1000800011241FBECFEFD8E0DEBFCDBF11E0A0E04E
:10009000B1E001C01D92A430B107E1F70E94B100A8
:1000A0000C94F2000C9400001F920F920FB60F9266
:1000B00011242F938F939F938091000190910101C0
:1000C000019690930101809300018091000190912D
:1000D00001018F5F9740E9F5109201011092000134
:1000E0008091020190910301019690930301809306
:1000F000020180910201909103018F3F910529F047
:1001000020F010920301109202018091020190915F
:1001100003019093990080910201909103018093D3
:100120009800809102019091030190939B0080912F
:1001300002019091030180939A00809102019091B5
:10014000030190939F00809102019091030180939D
:100150009E009F918F912F910F900FBE0F901F9037
:10016000189580EB8093660081E88093610080930E
:1001700061000E94C700109201011092000180E40A
:1001800090E090930301809302017894FFCFA1E95E
:10019000B0E01C92E0E9F0E088EA808383B38E60EF
:1001A00083BB9FB7F8941092950010929400109220
:1001B00097008FEF8093960010929B008FE78093BB
:1001C0009A0010929F008FE380939E009FBF8FE262
:1001D00088BB81E08093710080818260808389E1A7
:0801E0008C930895F894FFCF01
:00000001FF
