:100000000C9434000C9446000C9446000C9446006A
:100010000C9446000C9446000C9446000C94460048
:100020000C9446000C9448000C9446000C94460036
:100030000C9446000C9446000C9446000C94460028
:100040000C9446000C9446000C9446000C94460018
:100050000C9446000C9446000C9446000C94460008
:100060000C9446000C94460011241FBECFEFD8E03C
:10007000DEBFCDBF11E0A0E0B1E001C01D92A33012
:10008000B107E1F70E9476000C94B8000C940000D0
:100090001F920F920FB60F9211248F939F9380910E
:1000A000000190910101019690930101809300015C
:1000B0008091000190910101039789F41092010150
:1000C00010920001809102018F5F80930201809164
:1000D00002018093B400809102018093B3009F914C
:1000E0008F910F900FBE0F901F90189580EB80930B
:1000F000660081E880936100809361000E9489001E
:10010000109201011092000180E480930201789422
:10011000FFCF8091B60080688093B6008091B600D2
:1001200080628093B6001092B10080EA8093B000A4
:10013000239A539A1092B2008FE78093B3008FE313
:100140008093B40087E087BB81E08093700080914A
:10015000B60081FDFCCF8091B00083608093B00039
:100160008091B60080FDFCCF81E08093B1000895BE
:04017000F894FFCF31
:00000001FF
