:100000000C9434000C9446000C9446000C9446006A
:100010000C9446000C9446000C9446000C94460048
:100020000C9446000C9446000C9446000C94460038
:100030000C9446000C9448000C9446000C94460026
:100040000C9446000C9446000C9446000C94460018
:100050000C9446000C9446000C9446000C94460008
:100060000C9446000C94460011241FBECFEFD8E03C
:10007000DEBFCDBF11E0A0E0B1E001C01D92A43011
:10008000B107E1F70E948E000C94DC000C94000094
:100090001F920F920FB60F9211242F938F939F935D
:1000A000809100019091010101969093010180934C
:1000B000000180910001909101018F5F9B4031F51B
:1000C00010920101109200018091020190910301B0
:1000D0000196909303018093020180910201909117
:1000E00003018D37910530F083E090E09093030198
:1000F00080930201809102019091030190938B0003
:10010000809102019091030180938A009F918F91C9
:100110002F910F900FBE0F901F90189580EB80933A
:10012000660081E880936100809361000E94A400D2
:10013000109201011092000180E490E0909303017D
:10014000809302017894FFCFACEEB0E080E48C9312
:1001500021E830E0F9011082E0E8F0E080EA8083F5
:1001600084B1866084B99FB7F8941092850010928C
:100170008400109287008FEF8093860010928B008E
:100180008FE780938A009FBF87E286BB81E08093E0
:100190006F0083E080938C0082E080938D0088E084
:1001A0008093820080818260808389E1F90180836D
:0C01B0008C9182608C930895F894FFCF2E
:00000001FF
