:020000000C28CA
:10000800FE00030EF6000408F7000A08F8000D28A1
:10001800D3280B198B1E4C289A30831281007A182A
:100028003928750803192128741C1C2885161D28D1
:1000380085120310F40CF50361287A1D262885160D
:100048007A116128F30A73087206031936280830F2
:1000580085127A15F5007308303E84008313000872
:10006800F40061288B12F301612842080319432820
:100078000310C10C051E4128C117C20361287A105C
:100088008B1283161616FA1483124108C0006128D1
:100098000B1C60288316161E60288312051A612817
:1000A8006930810008300B118B16831616127A14EA
:1000B8008312C200C10161288B120B110B10780842
:1000C8008A0077088400760E8300FE0E7E0E0900F3
:1000D8008316490890000730831299007030831600
:1000E8008F00023081009101133085008701203094
:1000F8008312850087011030831695000330191785
:100108009F006430C520C8308B00831616167A1CF1
:100118008B286430F0006430E720FA1C9E28FA101F
:100128007108203E840083124008831380006430E5
:10013800F10AF000F00B8F287108F000F103710844
:10014800203E8400831300088312C5007108303EE6
:10015800840045088000F108031DA2287008B52016
:100168008B28F9008B1A08009B3085128100083013
:100178000B118B167A15F5003008F4007908F20097
:100188000800F9000B308312C4006230C300C30BAF
:10019800CB28C40BCB286400F90BC62808007030A4
:1001A800FA0184007630DF20203083138400433046
:1001B800DF2083016C2864008001840A0406031987
:1001C80000340406E028F900EC28EA28EB2864004B
:0601D800F90BE928080004
:00000001FF
