:020000000A28CC
:10000800FE00030EF0000A08F100A128D328C7015A
:10001800C50183160E1700000000D82055308B1339
:100028007820AA3078208B1750289B304902031C6F
:100038005028460B5028C70147284B304902031C5B
:100048002C28C608031D2C280230C001C7005028E0
:10005800C7015028460B3128502819304902031C83
:100068003B284708FE3E403E8400831300140830B6
:10007800C50A4502031C4928C5014708FF3E403E02
:10008800840083138001C70A50284708FE3E403E7B
:10009800840083130310800D83124708063A031D5A
:1000A80064288B1340087820831241087820831233
:1000B800420878208312430878208B178312C701DF
:1000C800C808031950284808C6000130C605C801E9
:1000D80047088400063004020318502800308A00BC
:1000E800CD30040782000A28F30067308312851296
:1000F800F200F20B7D288028F401731C86288312F5
:10010800851688288312851267300310F30CF200D5
:10011800F20B8C288F280830F40A7402031C8128FB
:10012800673083128516F200F20B98289B286730F7
:10013800F200F20B9D28A02808008B1A0B1DAA2894
:100148007508FF3A0319A928F50A0B118B190B1C1E
:10015800B72875088312C900F50100300519013068
:100168008038C8000B1071088A00700E8300FE0EDC
:100178007E0E0900C0308105FC309105C830920020
:100188008B1608009F0104309500811396008B158B
:100198000800192821282E282E282E282E28F50177
:1001A800C801C90183010B28DD20C620BE208B179A
:0C01B800080083128516831685120800CB
:00000001FF
