:100000008A114F20FFFFFFFFFFFFFFFFFFFFFFFFF2
:02007E00F00090
:10008000E70008007108E6007008E50008000400B9
:100090008001840A04060319003C04064820203D20
:1000A00083138400543D8A1147308A11A03D840097
:1000B000C83D8A114730903DE500013DE600503DC6
:1000C000E700013DE800E43DFC00FD0183018A11E9
:1000D0009020F3018312093D03178612F2001E3DA2
:1000E000F100EB3DF000F00B7320F10B7320F20BED
:1000F000732004008312093D03178616F2001E3D8B
:10010000F100EB3DF000F00B8320F10B8320F20BAC
:1001100083200400043DF30A7302031808006A20D8
:10012000093DE4001E3DE300EB3DE200E20B9620BA
:10013000E30B9620E40B962004008A15F8358A110B
:10014000D03D8312E300C93DE200E20BA520E30BA2
:10015000A520AA2004008316031317108512051189
:1001600006108511831203179A179D178A11CF3035
:100170008A11503D8A113F308A11903DF000013DB7
:10018000F1008A1142308A1183168E18CB208E140A
:100190008A1169308A118A112F348A11CB205B367B
:1001A0003708B9003608B8000800F001F10123361D
:1001B0008A11F001F1012C368A1183128612040093
:1001C000831603130108082C06388100E9378A11C9
:1001D0000300EF378A118616040093370800F200F7
:1001E000072D031D02210400073D8316031381041C
:1001F000E13D97051714030083160313171004003D
:1002000093370800F001F10123368A11F001F10162
:100210002C368A11831286120400F03D83160313D4
:100220008105E9378A110300EF378A118616040029
:1002300000218A15F4378A11F300840A2508000684
:10024000F400840A26080006F500840A2708000640
:10025000F6002F06031D36212E087506031D3621D4
:100260002D087406031D36212C087306031D080093
:10027000A83D840000088312A400840A0008A50099
:10028000840A0008A600840A0008A700033D41363E
:100290008A11AC00AD017C08CE00003D2702031D91
:1002A0005B21003D2602031D5B21003D2502031D4D
:1002B0005B21803D240203188D2127082604250494
:1002C0002404031970212B082D02031D69212A081B
:1002D0002C0203187021FC0A0319FD0A023D81213A
:1002E0002708260425042404031983212D082B0242
:1002F000031D7C212C082A0203188321FF3DE437CB
:100300008A11CF318A1103132708260425042404F7
:10031000003D031D8E21CF318A11003D03132702BA
:10032000031D9C21003D2602031D9C21003D25024A
:10033000031D9C21803D2402031CA321FF3DE437C3
:100340008A11CF318A11013D7D02223D03197C02C1
:10035000031CAE21223DFC00013DFD00003D7D025D
:100360009D3D03197C020318B8219C3DFC00FD0152
:100370000400831603130108F02C0A388100E13DC4
:100380009705163D97041714FB378A111A368A1100
:100390009B378A1123368A11AB378A112C26F0003D
:1003A000F008031DD7210317851405160800700BEC
:1003B000DD2103170516851008007008022D031DA6
:1003C00008000317851405120800C508031DF7214E
:1003D000E43DF000F1011A368A11723DF000F1019E
:1003E00023368A11723DF000F1012C368A118312F6
:1003F0000313E101D3016108D400A03D0310D40D23
:100400000310D40D5407D500840083138001840A9F
:100410008001840A8001840A8001DF01E0018312E7
:1004200003130F08BD000E08BC00C5378A11C600B3
:10043000460B21222B3D3D02C13D03193C0203180E
:100440002F22C608031D2B22253D3D02813D0319A5
:100450003C0203182F22043D6102031C3122C50116
:10046000D4273D083C0403199022CB08031D902299
:1004700055338A114708D307450B3F22D3010D3D61
:10048000530203185122C508031D5122E8016108D7
:10049000D4005D378A1152378A113F378A117A3773
:1004A0008A110D3D5302031C9022C508031D9022A2
:1004B0006108D40003106C378A1183130008D5003B
:1004C000840AD601840AD701840AD80161083F371B
:1004D0008A116108D40003106C378A11DE378A1143
:1004E000D1338A1172378A113F378A116108D400DB
:1004F00003106C378A110008D500840A0008D60062
:10050000840A0008D700840A0008D800570456045B
:10051000550403199022CB01CB0AE101E10A4E23D5
:100520003D083C040319AD224B0BAD22CC08031D42
:10053000AD2255338A11450303194023470BA122ED
:1005400040234708022D031DAD22C508031DAD221F
:10055000CC01CC0ACD01CD0A4E233D083C04031941
:100560003E234C0B3E234D0BB822023DD300CD0160
:1005700055338A114708D307450BBF22D301153DD8
:10058000530203181223C508031D1223470BD2225E
:100590006108D4005D378A1152378A113F378A11BA
:1005A0007A378A114708022D031D12236108D400EF
:1005B0005D378A11D9378A110310D50DD60DD70DA5
:1005C000D80DFF29031DDC2261083F378A1143083B
:1005D000D400D5014408D600D7010310D60DD70D9D
:1005E00054085604D80055085704D9005808DA00B2
:1005F0005908DB00003DDB1BFF3DDC00DD0061082E
:10060000DE000310DE0D03105E0DA02984005A08E1
:100610008004840A5B088004840A5C088004840ADD
:100620005D088004153D5302031C4023C508031DCB
:1006300040236108D4005D378A11D9378A1103102D
:10064000D80CD70CD60CD50CFF29031D1F2361082D
:100650003F378A116108D40003106C378A11DE37E6
:100660008A11D1338A1172378A113F378A11CB012F
:10067000CB0ACC01D001E10AD1014E23DF01E00118
:10068000DF0A0319E00A6008802DFF00CE3D7F02DB
:10069000031D4C23203D5F02031C0F220A3D8312E1
:1006A0000313610203180800FA21C5378A11C2003A
:1006B000C701C50192230F08BB378A11420B832360
:1006C000153D3F02E03D03193E0203187C230A3D1D
:1006D0003F02F13D03193E02031C7C23C301B223F8
:1006E000253D3F02803D03193E0203188323C301C9
:1006F000C401023DC7002724153D3F02E13D031917
:100700003E0203187023253D3F02813D03193E023E
:10071000031C922327348A11C501C50ACB01CC01E1
:10072000CD019723C2080319450803195B23420B27
:1007300008004508031D08000F08BB378A11C208CE
:10074000031DC823153D3F02E03D03193E02031877
:10075000B5230A3D3F02F13D03193E02031CB523B8
:10076000C301C30AC701C70A7B23153D3F02E13D10
:1007700003193E022B3D031CC9233F02C03D031950
:100780003E020318C823C301C30AC401C40A792363
:100790002B3D3F02C13D03193E02031C9723C501B7
:1007A000D427F801F901F401F501FB01FA01FB017D
:1007B000C03DF2017105F300402D7204031DF123C9
:1007C000F80A0319F90A073D7B020318FF230310F7
:1007D000F80DF90D0310F00DF10D0310F00DF10DF2
:1007E000FF23C03DF2017105F300802D720403194F
:1007F000F80A0319F90A073D7B02031CE823083DA8
:10080000FB0A7B02031CD823FA017908F700780859
:10081000F600803DF605F7017A0807280129132420
:100820000310F70CF60CFF29031D10247608F404BE
:100830007708F504083D0310F80DF90DFA0A7A025D
:10084000031C05247508F1007408F0000800901FCF
:100850002D2490138E018F01080090172A248312F3
:100860000313680B5A24C108031D3B24C908031D48
:100870003B24F5348A11410B4524C908031D452446
:10088000CA08031D45245D358A1183120313410BE9
:100890005A24C908031D5A244A0B5A24F5348A11D4
:1008A000410B5624C901CA01CA0A5824C901CA0108
:1008B000E801E80A410B0800490B0800E5318A11FC
:1008C000450B0800B23683162508FB002408FA0001
:1008D0008A15F3368A11A5348A1183120313370857
:1008E000BB003608BA003808BA023908031CBB033B
:1008F000BB025B368A114808670203188224040091
:1009000093378A1183162408042D2504260427040E
:10091000031D9D2483123B083502031D91243A08D0
:100920003402031CD10A063D5102031C0800013D9C
:100930003836043D0313D2000800FF3D8312D2076E
:10094000D208031D0800003D3826033D41368A11B8
:10095000AA00AB012D082B02031DB0242C082A028B
:100960000318CF244E08F300F4017D087402031D20
:10097000BB247C0873020318CF24FE3DFC07031838
:10098000FD0AFF3DFD07FB378A111A368A119B3796
:100990008A1123368A11AB378A112C368A118312B9
:1009A00003132B082D02031DD7242A082C02031839
:1009B00008004E08F300F40174087D02031DE224D0
:1009C00073087C0203180800023DFC070318FD0AA7
:1009D0007D08F1007C08F0001A368A119B378A11D5
:1009E00023368A11AB378A112C26F601F701F8015C
:1009F000F90104008316031317140300831603136D
:100A00001710831290138F018E010F08F5000E0846
:100A1000F400223DF000013DF1001A368A11913DAB
:100A2000F000F10123368A11913DF000F1012C36DE
:100A30008A116A3DF200F20B1B250400F001F1015E
:100A40001A368A11F001F10123368A11F001F10101
:100A50002C368A11253DF200F20B2C25031083124F
:100A60000317B3378A117803790403193B2543250B
:100A70000310B3378A1178037904031D4325382501
:100A80000310B3378A11790878040319402503133A
:100A90000F08F7000E08F60074087602F2007508D9
:100AA000031C750A7702F3004C3D7302913D031954
:100AB0007202C1010318C10A0800BC3DD801D90166
:100AC000DA01E001DD01D601D401D501D701F00042
:100AD000F1011A368A115E3DF000F10123368A11C8
:100AE0005E3DF000F1012C368A1183120313DB0105
:100AF000DC01831203130F08DF000E08DE00031071
:100B000003171A1B0314003D0318013D0313D900FA
:100B1000DA0159035A04031D94252B3D5F02C13DA0
:100B200003195E0203189F255A085904031DA225C4
:100B3000253D5F02813D03195E02031CA225DD01F4
:100B4000D601C8255F085E040319B325DD08031D1F
:100B5000B32555338A114708D8070F3D5802031CA7
:100B6000B325DD01DD0A5F085E040319C8255D0BAE
:100B7000C825D608031DC82555338A11470BC12542
:100B8000C8254708022D031DC825D701D70AD62539
:100B9000DB0A0319DC0A5C08802DFF00CE3D7F02D2
:100BA000031DD425203D5B02031C7925003D8312E3
:100BB00003135502B03D031954020318FD25570BCA
:100BC000FD25C901C90AF001F1011A368A11F001A7
:100BD000F10123368A11F001F1012C368A11033D0F
:100BE000F400463DF300CE3DF200F20BF525F30B89
:100BF000F525F40BF525FC250800C901CA01CA0A30
:100C0000F001F1011A368A11F001F10123368A113F
:100C1000F001F1012C368A11033DF400463DF3004A
:100C2000CE3DF200F20B1226F30B1226F40B122625
:100C30001926080033368A117008831603139100B1
:100C400071089200362633368A117008831603170E
:100C5000B8007108B900362633368A117008BA0018
:100C60007108BB0036260B088B130800080008002B
:100C7000F000700B3E260317071008000317071437
:100C80000800F1000F2CF0000310F00D0310F00D20
:100C9000831203131F08C32C70049F000C3D83169E
:100CA0009F0483129F140000831203139F1854267D
:100CB0001E08F20008000313B601B701C801AE0117
:100CC000AF01C001A801A9019F130000F801033D75
:100CD00041368A11AE070318AF0A043DF80A7802BC
:100CE000031C67262F08F7002E08CB378A11C8008F
:100CF000033D83169F040000F901083D9A368A11CE
:100D0000A8070318A90A043DF90A7902031C7D26E5
:100D10002908F7002808CB378A11C0009F17F00078
:100D2000F1014808F200F30126377108B700700896
:100D3000B6000800F100F000F00DF00D831203136F
:100D40001F087006C32C70069F00F33D83169F0595
:100D500083129F140000831203139F18AB261E08F2
:100D6000F2000800A001A101A201A301D401063DE7
:100D700013378A1175088312D6007408D500063D12
:100D800013378A11A3378A11063D13378A11A33707
:100D90008A11063D13378A11A3378A110310D60C26
:100DA000D50C0310D60CD50C5508F8005608F537AD
:100DB0008A11031DE5267A082202031DE52679081B
:100DC0002102031DE526780820020318ED265508A8
:100DD000A0005608A100A201A301083DD40A5402B4
:100DE000031CB7266508F8006608F5378A11031D4D
:100DF00003277A082202031D032779082102031D15
:100E000003277808200203180927B00A0319B10A3A
:100E10000B27B001B101003D3102103D0319300232
:100E2000031C0800D520F700F600F60DF60D1F088C
:100E30007606C32C76069F00F33D83169F058A1520
:100E4000E1367108F5007008F4000800F401F501BE
:100E5000701C30277208F4070318F50A7308F507A9
:100E60000310F20DF30D0310F10CF00C7108700477
:100E7000031D28277508F1007408F0000800D90048
:100E80000310D90D0310590DA029840055088000C6
:100E9000840A56088000840A57088000840A58088B
:100EA00080000800D700840A0008D8000310D50D80
:100EB000D60DD70DD80D610808000310D40D03100E
:100EC000540DA029840083130008D500840A00086B
:100ED000D600840A00080800D40D0310540DA02980
:100EE000840008007008D5007108D600D701D80129
:100EF000610808004308D400D501D601D701610874
:100F0000D8000310D80D0310580DA02984005408F0
:100F10008004840A55088004840A56088004840AE0
:100F2000570880040800F83D831603138105E13D4E
:100F30009705171408007D08F1007C08F0000310E5
:100F4000F10CF00C080074088312D5070318D60AB8
:100F50007508D60708007D08F1007C08F000031032
:100F6000F10CF00C08001A1B0314003D0318013D9E
:100F7000F800F9010800BF000E08BE00003D03178D
:100F80001A1B013D0313C2000800003D03171A1B82
:100F9000013D03130800F6000310F70CF60C0310D4
:100FA000F70CF60C76080800C50ACB01CC01CD0180
:100FB0000800D700840A0008D800023C0008F000AE
:100FC000840A0008F1000800FC070318FD0AFD0769
:100FD000013CE13D9705123D970417140800831664
:100FE00003131710831203170800F900FA01FB011D
:100FF0007B08230208007D08F1007C08F00008004F
:101BF00020368A15B03D03179A001B08082C1438AC
:101C00009B00831603130D130B084B368A152E36D3
:101C10008A153E368A155F36913D831203179D0063
:101C2000833D9F1498001C081F2C80389C0083164D
:101C300003130108F02C08388100123D97000800BA
:101C4000FF3D831203139C009D00C03D900083164E
:101C500003171E108312031310140800523D850051
:101C6000AC3D83168505203D8312860083168612BF
:101C7000013D831287008316071008000F080F2C00
:101C800070388F00553D03179F00F83D9F05043DB8
:101C900003138E000800153DFB00C63DFA00FA0B49
:101CA0004F26FB0B4F2604008C36FC3D8316031396
:101CB0009C05A33D9F008D3D83129F000800323D8F
:101CC00003179E170313910092018312920183164A
:101CD0000317B801B901BA01BB01BC01BD01BE01C6
:101CE000BF01033DB600B7000A3DB000B1017D3D24
:101CF000B2000D3DB300B401B501983DAE00AF0197
:101D00001E169E1E8126831203131215831685123A
:101D10000511061085110800831203171808F50035
:101D2000903D831603139F00C03D831203179C0050
:101D3000803D9800A53D03139F0083161C16E136D5
:101D40008A157108F9007008F8001C12E1368A152E
:101D50007108F7007008F600003D7902413D031953
:101D60007802403D031CB826F802031CF903C02684
:101D7000F40078087402F800790903180129F900C1
:101D8000003D7702413D03197602403D031CCC26FD
:101D9000F602031CF703D426F40076087402F6005A
:101DA000770903180129F70077087902031DDA265D
:101DB00076087802031C1C16750883120317980016
:101DC000080083129F140000831203139F18E42657
:101DD0001E08F300F20183161E08F2047308F100D6
:101DE0007208F0000800003D831203171A1B013D22
:101DF0000313CF00450B0800D00803194F0B080050
:101E00001827D33783120313D001D00A08008A1190
:101E100019318A1502273E378A1502277E378A151F
:101E2000022732378A150227D001D00A04000800A1
:101E30007B08002D03191D2714277A08022D03198A
:101E40000127012D03190727072D03190B27012D42
:101E500003190E27542D03191127202D03190227CA
:101E600014270800831629088312B3008316280854
:101E70008312B2003F3DB205B3010800F4378A1562
:101E8000F600840A25080006F700840A26080006E2
:101E9000F800840A27080006F9002F06031D5A27B8
:101EA0002E087806031D5A272D087706031D5A278A
:101EB0002C087606031D0800831233083204031D24
:101EC0006F2783162908F1002808F0000A3DF20068
:101ED000F3018A1126378A1571088312FC278316AD
:101EE0002908F1002808F00083123308F3003208B3
:101EF000F2008A1126378A157108FC27F4378A15F3
:101F0000F400840A25080006F500840A2608000665
:101F1000F600840A27080006F7002F06031D9A27FB
:101F20002E087606031D9A272D087506031D9A278D
:101F30002C087406031D0800280A29042A042B040F
:101F4000031908002808A427F300642D031D0800C6
:101F50000400073D831603138104E13D9705243DEA
:101F6000970417148312093D03178612F2001E3DD1
:101F7000F100EB3DF000F00BBB27F10BBB27F20BA0
:101F8000BB2704008312093D03178616F2001E3D8D
:101F9000F100EB3DF000F00BCB27F10BCB27F20B60
:101FA000CB270400B227F4378A15F300840A2508EA
:101FB0000006F400840A26080006F500840A2708B3
:101FC0000006F6002F06031DEF272E087506031DD9
:101FD000EF272D087406031DEF272C087306031D39
:101FE000080028088A11EF20083DA02984008316E4
:101FF0002408831300060800B5007008B400080028
:00000001FF
