:100000008A15A12604008001840A04060319003C15
:1000100004060320F3018312093D03178612F20040
:100020001E3DF100EB3DF000F00B1420F10B14200D
:10003000F20B142004008312093D03178616F20008
:100040001E3DF100EB3DF000F00B2420F10B2420CD
:10005000F20B24200400043DF30A73020318080085
:100060000B2048353308B5003208B4000800F00111
:10007000F10128358A11F001F10131358A1183121D
:1000800086120400831603130108082C0638810029
:1000900048378A11030083160313171083120317BE
:1000A000861604001C370800F200072D031D672088
:1000B0000400073D831603138104E13D97051714DF
:1000C000030083160313171004001C370800F00107
:1000D000F10128358A11F001F10131358A1104004E
:1000E000F03D83160313810548378A1103008316F8
:1000F00003131710040065209F378A11F200840A49
:1001000025080006F300840A26080006F400840A85
:1001100027080006F5002F06031D98202E087406F8
:10012000031D98202D087306031D98202C087206C5
:10013000031D0800A83D840000088312A400840A5F
:100140000008A500840A0008A600840A0008A70089
:10015000003D2702031DB620003D2602031DB620E8
:10016000003D2502031DB620803D24020318CE2049
:1001700027082604250424040319C420E00A0319CF
:10018000E10A013D20318A110313270826042504C2
:100190002404031DCE20023D20318A11003D0313AB
:1001A0002702031DDD20003D2602031DDD20003D4A
:1001B0002502031DDD20803D2402031CE720FF3DB6
:1001C000E0070318E10AE107003D20318A11013DF3
:1001D00003136102223D03196002031CF320223D38
:1001E000E000013DE100003D61029D3D0319600218
:1001F0000318FD209C3DE000E1010400E13D831671
:1002000003139705163D9704171483126108F10034
:100210006008F0001F358A1183126108F100600840
:10022000F0000310F10CF00C28358A11831203132F
:100230006108F1006008F0000310F10CF00C3125AA
:10024000F000F008031D2821031785140516080087
:10025000700B2E2103170516851008007008022D5B
:10026000031D08000317851405120800C108031DAB
:100270004821E43DF000F1011F358A11723DF00084
:10028000F10128358A11723DF000F10131358A11F2
:1002900083120313DC01CE015C08CF00A03D0310E4
:1002A000CF0D0310CF0D4F07D000840083138001C2
:1002B000840A8001840A8001840A8001DA01DB015A
:1002C000831203130F08B9000E08B8002E378A11E5
:1002D000C200420B72212B3D3902C13D0319380285
:1002E00003188021C208031D7C21253D3902813D70
:1002F0000319380203188021043D5C02031C82218B
:10030000C1015427390838040319E121C708031D26
:10031000E121A6328A114308CE07410B9021CE017C
:100320000D3D4E020318A221C108031DA221E701C1
:100330005C08CF00D6368A11CB368A11B8368A11BE
:10034000F3368A110D3D4E02031CE121C108031D45
:10035000E1215C08CF000310E5368A118313000801
:10036000D000840AD101840AD201840AD3015C0836
:10037000B8368A115C08CF000310E5368A1142377F
:100380008A1122338A11EB368A11B8368A115C0839
:10039000CF000310E5368A110008D000840A000857
:1003A000D100840A0008D200840A0008D300520455
:1003B000510450040319E121C701C70ADC01DC0A1A
:1003C0009F22390838040319FE21470BFE21C80873
:1003D000031DFE21A6328A11410303199122430B0A
:1003E000F22191224308022D031DFE21C108031DA5
:1003F000FE21C801C80AC901C90A9F223908380468
:1004000003198F22480B8F22490B0922023DCE008F
:10041000C901A6328A114308CE07410B1022CE0132
:10042000153D4E0203186322C108031D6322430BCE
:1004300023225C08CF00D6368A11CB368A11B83613
:100440008A11F3368A114308022D031D63225C08CA
:10045000CF00D6368A1159378A110310D00DD10D2D
:10046000D20DD30DFF29031D2D225C08B8368A1149
:100470003F08CF00D0014008D100D2010310D10DB8
:10048000D20D4F085104D30050085204D400530831
:10049000D5005408D600003DD61BFF3DD700D8003C
:1004A0005C08D9000310D90D0310590DA029840050
:1004B00055088004840A56088004840A570880047A
:1004C000840A58088004153D4E02031C9122C1087D
:1004D000031D91225C08CF00D6368A1159378A1144
:1004E0000310D30CD20CD10CD00CFF29031D7022A9
:1004F0005C08B8368A115C08CF000310E5368A1113
:1005000042378A1122338A11EB368A11B8368A11A2
:10051000C701C70AC801CB01DC0ACC019F22DA015E
:10052000DB01DA0A0319DB0A5B08802DFF00CE3DF0
:100530007F02031D9D22203D5A02031C60210A3DBB
:10054000831203135C02031808004B212E378A1113
:10055000BE00C301C101E3220F0824378A113E0BFC
:10056000D422153D3B02E03D03193A020318CD2287
:100570000A3D3B02F13D03193A02031CCD22BF01A3
:100580000323253D3B02803D03193A020318D42280
:10059000BF01C001023DC3007823153D3B02E13D90
:1005A00003193A020318C122253D3B02813D03197C
:1005B0003A02031CE32278338A11C101C10AC70140
:1005C000C801C901E822BE08031941080319AC2279
:1005D0003E0B08004108031D08000F0824378A114C
:1005E000BE08031D1923153D3B02E03D03193A02E5
:1005F000031806230A3D3B02F13D03193A02031C8E
:100600000623BF01BF0AC301C30ACC22153D3B022A
:10061000E13D03193A022B3D031C1A233B02C03D66
:1006200003193A0203181923BF01BF0AC001C00A07
:10063000CA222B3D3B02C13D03193A02031CE822AA
:10064000C1015427F801F901F401F501FB01FA0198
:10065000FB01C03DF2017105F300402D7204031D42
:100660004223F80A0319F90A073D7B0203185023B5
:100670000310F80DF90D0310F00DF10D0310F00D3E
:10068000F10D5023C03DF2017105F300802D72047D
:100690000319F80A0319F90A073D7B02031C3923E1
:1006A000083DFB0A7B02031C2923FA017908F700A5
:1006B0007808F600803DF605F7017A080728012939
:1006C00064230310F70CF60CFF29031D6123760841
:1006D000F4047708F504083D0310F80DF90DFA0A43
:1006E0007A02031C56237508F1007408F000080014
:1006F000901F7E2390138E018F01080090177B239B
:1007000083120313670BAB23BD08031D8C23C5089D
:10071000031D8C23FA338A113D0B9623C508031D54
:100720009623C608031D962362348A11831203138D
:100730003D0BAB23C508031DAB23460BAB23FA339C
:100740008A113D0BA723C501C601C60AA923C5010D
:10075000C601E701E70A3D0B0800450B08003631EA
:100760008A11410B0800B9358A1183162508FB0050
:100770002408FA002D368A113308B7003208B60073
:100780003408B6023508031CB703B70248358A118E
:10079000440866020318CF2304001C378A1183160D
:1007A0002408042D250426042704031DF2238312A4
:1007B00064083007FC0065080318650A3107FD006E
:1007C00037087D02031DE62336087C02031CCC0A91
:1007D000063D4C02031C0800013D3F35043D031358
:1007E000CD000800FF3D8312CD07CD08031D080092
:1007F000003D3F25F601F701F801F90104008316D9
:100800000313171403008316031317108312901396
:100810008F018E010F08F5000E08F400223DF00054
:10082000013DF1001F358A11913DF000F10128359D
:100830008A11913DF000F10131358A116A3DF200D3
:10084000F20B20240400F001F1011F358A11F001A0
:10085000F10128358A11F001F10131358A11253D68
:10086000F200F20B312403108312031714378A119C
:1008700078037904031940244824031014378A119B
:1008800078037904031D48243D24031014378A118A
:10089000790878040319452403130F08F7000E089C
:1008A000F60074087602F2007508031C750A7702D8
:1008B000F300093D7302613D03197202BD01031883
:1008C000BD0A0800BC3DD301D401D501DB01D8012C
:1008D000D101CF01D001D201F000F1011F358A1101
:1008E0005E3DF000F10128358A115E3DF000F10116
:1008F00031358A1183120313D601D70183120313F2
:100900000F08DA000E08D900031003171A1B03148E
:10091000003D0318013D0313D400D50154035504D1
:10092000031D99242B3D5A02C13D03195902031896
:10093000A42455085404031DA724253D5A02813DD3
:1009400003195902031CA724D801D101CD245A0848
:1009500059040319B824D808031DB824A6328A11F3
:100960004308D3070F3D5302031CB824D801D80A0B
:100970005A0859040319CD24580BCD24D108031D5E
:10098000CD24A6328A11430BC624CD244308022D60
:10099000031DCD24D201D20ADB24D60A0319D70ABB
:1009A0005708802DFF00CE3D7F02031DD924203D36
:1009B0005602031C7E24003D831203135002B03DF7
:1009C00003194F0203180225520B0225C501C50A5F
:1009D000F001F1011F358A11F001F10128358A116A
:1009E000F001F10131358A11033DF400463DF30079
:1009F000CE3DF200F20BFA24F30BFA24F40BFA24A6
:100A000001250800C501C601C60AF001F1011F3524
:100A10008A11F001F10128358A11F001F101313517
:100A20008A11033DF400463DF300CE3DF200F20B87
:100A30001725F30B1725F40B17251E2508003A354B
:100A40008A117008831603139100710892003D25E6
:100A50003A358A11700883160317B8007108B90077
:100A60003D253A358A11700883160317BA007108BC
:100A7000BB003D250B088B13080008000800F000A0
:100A8000700B45250317071008000317071408000B
:100A90000313B201B301C401AA01AB01BC01A80157
:100AA000A9019F130000F801033D87358A11AA07A9
:100AB0000318AB0A043DF80A7802031C54252B08DE
:100AC000F7002A0834378A11C400033D83169F04B7
:100AD0000000F901083DA1358A11A8070318A90AE9
:100AE000043DF90A7902031C6A252908F700280841
:100AF00034378A11BC009F17F000F1014408F2005E
:100B0000F3019F367108B3007008B2000800F100CD
:100B10000F2CF0000310F00D0310F00D83120313DF
:100B20001F08C32C70049F000C3D83169F04831282
:100B30009F140000831203139F189A251E08F200C9
:100B40000800F100F000F00DF00D831203131F08F0
:100B50007006C32C70069F00F33D83169F05831219
:100B60009F140000831203139F18B2251E08F20081
:100B70000800A001A101A201A301CF01063D1A3680
:100B80008A1175088312D1007408D000063D1A3608
:100B90008A110C378A11063D1A368A110C378A11D0
:100BA000063D1A368A110C378A110310D10CD00C6D
:100BB0000310D10CD00C5008F80051084E378A11A0
:100BC000031DEC257A082202031DEC257908210279
:100BD000031DEC25780820020318F4255008A00016
:100BE0005108A100A201A301083DCF0A4F02031C36
:100BF000BE256208F80063084E378A11031D0A26D5
:100C00007A082202031D0A2679082102031D0A26FA
:100C10007808200203181026AC0A0319AD0A122620
:100C2000AC01AD01003D2D02103D03192C02031C47
:100C300008003720F700F600F60DF60D1F087606BF
:100C4000C32C76069F00F33D83169F058A15EE3769
:100C50007108F5007008F4000800003D83120317C6
:100C60001A1B013D0313CA00410B0800CB080319EE
:100C70004A0B08007B08002D031957265526AC3770
:100C80008A1104003D2704007C308A1142260400AA
:100C90005E378A114226040079368A114226040002
:100CA0006C368A11422604003D2704003D277A084D
:100CB000022D03193F26012D03194326072D031981
:100CC0004726012D03194B26542D03194F26202D9D
:100CD0000319532655260800831603132908831287
:100CE000AF00831628088312AE003F3DAE05AF016A
:100CF00008009F378A11F400840A25080006F500D1
:100D0000840A26080006F600840A27080006F70071
:100D10002F06031D95262E087606031D95262D0801
:100D20007506031D95262C087406031D0800280A65
:100D300029042A042B04031908002808D127F401E8
:100D4000F501701CA9267208F4070318F50A730848
:100D5000F5070310F20DF30D0310F10CF00C710800
:100D60007004031DA1267508F1007408F000080046
:100D7000D4000310D40D0310540DA0298400500892
:100D80008000840A51088000840A52088000840A86
:100D9000530880000800D200840A0008D300031022
:100DA000D00DD10DD20DD30D5C0808000310CF0D6E
:100DB00003104F0DA029840083130008D000840A7B
:100DC0000008D100840A00080800CF0D03104F0D61
:100DD000A029840008007008D0007108D100D20159
:100DE000D3015C0808003F08CF00D001D101D20137
:100DF0005C08D3000310D30D0310530DA029840009
:100E00004F088004840A50088004840A5108800432
:100E1000840A52088004080074088312D00703185B
:100E2000D10A7508D10708001A1B0314003D0318E6
:100E3000013DF800F9010800F83D83160313810510
:100E4000E13D970517140800BB000E08BA00003DED
:100E500003171A1B013D0313BE000800003D0317D2
:100E60001A1B013D03130800F6000310F70CF60CE3
:100E70000310F70CF60C7608080083120313CB015D
:100E8000CB0A08000008F000840A0008F1000800FE
:100E9000E13D9705123D970417140800F900FA0187
:100EA000FB017B0823020800C10AC701C801C90170
:100EB0000800D200840A0008D300023C9F378A1140
:100EC000F600840A25080006F700840A26080006B2
:100ED000F800840A27080006F9002F06031D7A2768
:100EE0002E087806031D7A272D087706031D7A271A
:100EF0002C087606031D080083122F082E04031DFC
:100F00008E2783162908F1002808F000143DF2000E
:100F1000F3019F368A1171088312A82783162908C6
:100F2000F1002808F0000310F00DF10D83122F08D6
:100F3000F3002E08F2009F368A117108A827083D99
:100F4000A0298400831603132408831300060800D5
:100F5000B1007008B0000800083DA0298400831685
:100F6000240883130006F300840A25080006F40011
:100F7000840A26080006F500840A27080006F60001
:100F80002F06031DCD272E087506031DCD272D081E
:100F90007406031DCD272C087306031D08002808BE
:100FA0005420F300642D031D08000400073D831640
:100FB00003138104E13D9705243D97041714831220
:100FC000093D03178612F2001E3DF100EB3DF000D3
:100FD000F00BE827F10BE827F20BE8270400831257
:100FE000093D03178616F2001E3DF100EB3DF000AF
:100FF000F00BF827F10BF827F20BF8270400DF2796
:081D2800F000E600080071085C
:101D3000E3007008E20008007108E5007008E400A4
:101D40000800203D831384004F3D8A1102308A151C
:101D5000A03D8400C83D8A110230E43DE000903D82
:101D6000E101E200013DE300D03DE400073DE50074
:101D7000503DE600013DE70083018A15BF26093D7D
:101D8000DF001E3DDE00EB3DDD00DD0BC526DE0B7A
:101D9000C526DF0BC52604008A1505378A15D03DF8
:101DA0008312DE00C93DDD00DD0BD426DE0BD42618
:101DB000D926040083160313171085120511061087
:101DC0008511831203179A179D178A1131308A15CE
:101DD000503D8A1594368A15903DF000013DF10082
:101DE0008A1597368A15D03DF000073DF1008A1517
:101DF0009C368A1583168E1801278E148A110A3094
:101E00008A158A1180338A1501272D378A15B03D2E
:101E100003179A001B08082C14389B008316031321
:101E20000D130B0858378A153B378A154B378A151F
:101E30006C37913D831203179D00833D9F149800DA
:101E40001C081F2C80389C00831603130108F02CFB
:101E500008388100123D97000800FF3D83120313EC
:101E60009C009D00C03D9000831603171E10831236
:101E7000031310140800523D8500AC3D8316850500
:101E8000203D8312860083168612013D831287004F
:101E90008316071008000F080F2C70388F00553D6F
:101EA00003179F00F83D9F05043D03138E000800B3
:101EB000153DFB00C63DFA00FA0B5C27FB0B5C27C7
:101EC00004009937FC3D831603139C05A33D9F0036
:101ED0008D3D83129F000800323D03179E170313A8
:101EE000910092018312920183160317B801B90180
:101EF000BA01BB01BC01BD01BE01BF01033DB6007B
:101F0000B7000A3DB000B1017D3DB2000D3DB30008
:101F1000B401B501983DAE00AF011E169E1E8E277E
:101F200083120313121583168512051106108511ED
:101F30000800831203171808F500903D8316031359
:101F40009F00C03D831203179C00803D9800A53D73
:101F500003139F0083161C16EE378A157108F900CB
:101F60007008F8001C12EE378A157108F700700827
:101F7000F600003D7902413D03197802403D031C03
:101F8000C527F802031CF903CD27F4007808740272
:101F9000F800790903180129F900003D7702413D55
:101FA00003197602403D031CD927F602031CF703F0
:101FB000E127F40076087402F60077090318012976
:101FC000F70077087902031DE72776087802031CDB
:101FD0001C167508831203179800080083129F14BB
:101FE0000000831203139F18F1271E08F300F2016B
:101FF00083161E08F2047308F1007208F00008004E
:02400E00CFCB16
:00000001FF
