:020000020000FC
:100000000C949A00189518951895189518951895A8
:100010001895189518951895189518951895189578
:100020001895189518951895189518951895189568
:100030001895189518951895189518951895189558
:100040001895189518951895189518951895189548
:100050001895189518951895189518951895189538
:10006000189518951895189500E806BF0CE406BF7A
:10007000089512BD01BDF89A0000000000B5089572
:100080001091F20000E80093F20013601093F20068
:100090001091F2000093F2001F791093F20000001B
:1000A000000001E000C010E8109361000F700068CC
:1000B00000936100089500E00093C00006E0009303
:1000C000C20008E10093C10000E00093C50003E313
:1000D0000093C40008951091C00015FFFCCF009359
:1000E000C60008950E9440000E945B000C943400FA
:1000F0009A938A930E94720005E517D00AEA15D0F8
:1001000080E090E08C010E9439000FD00FEF11EEDB
:1001100024E0015010402040E1F700C000000196AB
:100120008C3000E0900744F7EDCF0C946B0000009A
:100130008895FECF0FE90DBF01E00EBFC0E8D1E00A
:100140000E94A8000E9478000E9497000C949700DB
:0401500001E008952D
:107800000001020304050708090A0B0C000102032A
:1078100004050708090A0B0C000102030405070808
:04782000090A0B0C3A
:027BFE00005530
:0400000300000000F9
:00000001FF
