:100000000C947E000C94B8010C949B000C949B0003
:100010000C949B000C949B000C949B000C949B00F4
:100020000C949B000C949B000C949B000C949B00E4
:100030000C949B000C949B000C949B000C949B00D4
:100040000C9455010C949B000C949B000C949B0009
:100050000C949B000C949B000C949B000C949B00B4
:100060000C949B000C949B0005010906A101050757
:1000700019E029E71500250175019508810295030E
:1000800075082565190029658100C018035500739E
:100090000062004B006500790062006F0061007231
:1000A0000064002003720061006E00630069006458
:1000B000006200610063006F006E002E0063006F3D
:1000C000006D0004030904090222000101008032CE
:1000D00009040000010300000009210101000122C0
:1000E00023000705810308000A1201100100000027
:1000F00008424231E10001010200010011241FBE4B
:10010000CFEFD8E0DEBFCDBF11E0A0E0B1E0E4E585
:10011000FAE002C005900D92A230B107D9F721E0B4
:10012000A2E0B1E001C01D92A734B207E1F70E943E
:10013000ED020C9428050C940000CF93DF931F92DE
:10014000CDB7DEB7198280917A00806480937A00FF
:1001500080917A0086FDFCCF809178008983209180
:100160007900898190E0922B0F90DF91CF910895D3
:10017000CF93DF939091AD00907F9093AD00863147
:1001800011F08C3129F49091AD0096609093AD0000
:100190008E3008F08E508F71806480937C00809147
:1001A0007D00806280937D000E949D00EC01809123
:1001B0007D008F7D80937D000E949D008C0F9D1F90
:1001C0009C0136952795892F9927A901481B590B22
:1001D000CA01DF91CF9108950C94B8003FB7F8940D
:1001E0008091070190910801A0910901B0910A0145
:1001F00026B5A89B05C02F3F19F00196A11DB11D82
:100200003FBFBA2FA92F982F8827820F911DA11DBC
:10021000B11DBC01CD0142E0660F771F881F991FF9
:100220004A95D1F7089520911F0124FF07C030910E
:10023000200128E823272093200103C02AE52093EA
:100240001F01FC01A1E2B1E0049621912D93E81772
:10025000F907D9F764E081E291E00E94B40188E0F7
:1002600080931F01089590911F0194FFFCCF10927D
:10027000100110921101109212011092130180933B
:10028000110180E191E00E94130180911F0184FF20
:10029000FCCF1092100110921101109212011092D5
:1002A000130180E191E00C9413011F920F920FB69D
:1002B0000F9211242F933F938F939F93AF93BF93EC
:1002C0008091030190910401A0910501B091060174
:1002D0003091020123E0230F2D3720F40196A11D58
:1002E000B11D05C026E8230F0296A11DB11D209364
:1002F00002018093030190930401A0930501B09340
:1003000006018091070190910801A0910901B09127
:100310000A010196A11DB11D809307019093080168
:10032000A0930901B0930A01BF91AF919F918F9162
:100330003F912F910F900FBE0F901F901895A82FEF
:10034000B92F80E090E041E050EA609530E009C0CC
:100350002D9182279795879510F084279527305EF9
:10036000C8F36F5FA8F30895EADF8D939D93089516
:10037000CF93CFB7CF93DF93C3954C9BE9F74C9BBB
:100380000BC04C9B09C04C9B07C04C9B05C04C9BB1
:1003900003C04C9B01C096C06F930000C0912D011B
:1003A000DD27CF5CDE4F2F9365E54C9B03C02F917B
:1003B0006F91E5CF0F931F934F9300000000000053
:1003C000000020E040E15F93000009B1047104FBEC
:1003D00027F93F93000050E03BE000003CC014715F
:1003E00040642F77012F5F5F20C0406819B11471FE
:1003F0002F77525021C0406409B12F770471E9F181
:100400005F5F0000000025C0406219B12F771471B2
:10041000A1F15F5F0000000026C004711027515059
:1004200012F45D5F0000115027952C3F19B1B8F60A
:1004300014710127015027952C3FB8F642274993A4
:10044000000009B1047110274F73115027952C3FFC
:1004500090F64695469519B1147179F0012701502F
:1004600027952C3F88F66B5A60F3315009B1A8F6F6
:1004700000C011E01CBB002719C03B503195C31BC5
:10048000D04011E01CBB0881033C09F10B34F9F0AA
:1004900020912B011981110F1213EDCF4A81441FB6
:1004A000093651F10D3211F0013E29F70093300168
:1004B0003F915F914F911F910F912F916F91CCB30D
:1004C000C0FD5ACFDF91CF91CFBFCF91189520912A
:1004D0003001222369F310912E011123B1F534303C
:1004E000BAF130932E0120932C0110912D013BE0A5
:1004F000311B30932D012CC000912E0101302CF5C1
:100500000AE54F7049F43091010134FD22C0009397
:100510000101C4E1D1E021C030911F0134FD19C0B7
:1005200000931F01C0E2D1E018C0052710E00000D1
:10053000000000000BB900001EC0052710E0221FBC
:10054000000021C010E0000024C04AE5000002C005
:1005500032ED432FC4E1D0E032E01AB114615C9A6D
:1005600000000BB11AB954E120E865E320FF05272C
:100570000BB9279517951C3FC0F66695B8F7B1F7EC
:1005800020FF052700000BB9279517951C3FA8F6FB
:100590002795179517FF052700001C3F0BB990F60C
:1005A000299100003A9509F70B7E10912F01110F48
:1005B000C651D0400BB911F010932B0111E01CBBB8
:1005C00000611AB11B7E402F4B7E54E05A95F1F723
:1005D0000BB91AB94BB900006BCF8091F200806162
:1005E0008EBB80E88093F2009EB39093F2008093DC
:1005F000610021E020936100789494B5926094BDED
:1006000094B5916094BD95B5926095BD95B5916096
:1006100095BD90916E00916090936E001092810054
:1006200090918100926090938100909181009160FF
:1006300090938100909180009160909380009091C0
:10064000B10094609093B1009091B000916090934C
:10065000B0009091910092609093910090919100E0
:100660009160909391009091900091609093900090
:1006700090917A00946090937A0090917A009260C1
:1006800090937A0090917A00916090937A00909183
:100690007A00906890937A001092C100F894809349
:1006A000610020936100000000008093F20087E960
:1006B0008093F2008FEF8EBB8EB3882319F08EB338
:1006C0008150F9CF8FEF8EBB8EB3882319F08EB394
:1006D0008150F9CF80E88093F20087EB8093F2009D
:1006E0008FEF8EBB8EB3882319F08EB38150F9CF74
:1006F0008FEF8EBB8EB3882319F08EB38150F9CF64
:1007000080E8809361001092610010926E008091E9
:100710006900826080936900E89A8BE480932001ED
:100720008AE580931F01549A80E02BE93FE08150D5
:1007300031F000000000F9013197F1F7F8CF54983B
:1007400010921001109211011092120110921301D7
:1007500080E191E00E941301789499EEA92E90E037
:10076000B92E20E1822E21E0922E30E0632E30E07F
:10077000732E80912E01835087FDB4C090912D017E
:1007800020912C012D3209F0ABC0883009F0A8C0AF
:10079000ECE0F0E0E91BF109EF5CFE4F83EC8093A5
:1007A00014018AE58093010110920D018081807609
:1007B00079F090920F0180920E01803209F086C08C
:1007C00081818A3009F082C0838180930B017EC0D1
:1007D000928110921D018181811106C010921E012B
:1007E0008DE191E022E06DC0853019F490932F01E6
:1007F00065C0863009F04CC08381813031F4B092FD
:100800000F01A0920E0122E13FC0823041F487EC3B
:1008100090E090930F0180930E0122E235C0833067
:10082000F1F4911108C083EC90E090930F01809354
:100830000E0124E029C0913041F483EA90E09093C6
:100840000F0180930E0120E21FC09230E1F48BE88B
:1008500090E090930F0180930E0128E115C0813242
:1008600041F489ED90E090930F0180930E0129E00F
:100870000BC0823241F488E690E090930F018093A0
:100880000E0123E201C020E080E480930D011FC02F
:10089000883069F0893019F490930C010FC08A30C8
:1008A00049F08B3059F48BE48093200107C08CE031
:1008B00091E002C08DE191E021E003C08DE191E083
:1008C00020E090930F0180930E0101C020E087810A
:1008D000811104C08681821708F4282F209300011B
:1008E00010922E018091010184FF48C08091000187
:1008F0008F3F09F443C0C82F893008F0C8E08C1B33
:10090000809300019091140188E889278093140155
:10091000CC2339F180910E0190910F0120910D01AE
:1009200026FF0BC0A5E1B1E0FC012C2F280F34916C
:100930003D9331962E13FBCF09C0DC01E5E1F1E0D8
:100940002C2F2E0F3D9131932E13FCCF2FEF2C0F18
:1009500030E02F5F3F4F820F931F90930F018093E2
:100960000E016C2F85E191E00E94B401CC5FCC3088
:1009700019F08FEF80930001C093010184E199B1D8
:10098000947131F48150D9F710922F0110922B01FC
:1009900082E00E94EC00EC0181E00E94EC002C015E
:1009A00080E00E94EC008C0199E9491698E0590614
:1009B00014F080E506C02CE6421627E052061CF42F
:1009C0008FE40E943301093988E0180714F081E5AB
:1009D00004C00C3617401CF482E50E943301C9396B
:1009E00028E0D20714F084E004C0CC36D7401CF4D1
:1009F00085E00E9433010E94EE006B017C0184E6D9
:100A0000282E312C412C512C0E94EE00DC01CB0110
:100A10008C199D09AE09BF09883E9340A105B10517
:100A200058F091E0291A31084108510828EEC20E09
:100A300023E0D21EE11CF11C2114310441045104B5
:100A400019F76114710409F494CE0E94000085CE58
:040A5000F894FFCF48
:020A5400FF5A47
:040000000C94003A22
:1074000011248FEF98E09EBF8DBF94B714BE892FD3
:107410008D7011F0892FE0D190E89093F20083E90C
:107420008093F2009093610081E08093610096BFA9
:107430008CE486BF85E08093810088E18093C10061
:1074400086E08093C20080E18093C4008DE0AED1DD
:10745000259A96E020E33CEF51E040E2309385002E
:107460002093840056BBB09BFECF85B1842785B99D
:10747000A895915099F7662477244301CC24DD2404
:1074800064E9A62E51E0252E312C412C512C7DD1C2
:10749000813461F47AD1182F8FD1123829F1113843
:1074A00011F485E001C083E068D164C1823411F435
:1074B00084E103C0853419F485E086D15BC185354C
:1074C00079F463D1E82EFF2460D1082F10E0102F4B
:1074D00000270E291F29000F111F6ED168014AC114
:1074E000863521F484E070D180E0DECF843609F067
:1074F000C5C04BD190E0F82EEE2447D1E80EF11C28
:1075000044D1B82EE70100E011E03FD1F8018193AA
:107510008F012197D1F711BC8D2D992782BD82B59E
:1075200086958695282FD401C301022E04C0B695F6
:10753000A795979587950A94D2F780FD15C0F6E434
:10754000BF1691F4D201C10104C0880F991FAA1F70
:10755000BB1F2A95D2F7682A792A8A2A9B2AAFBAB2
:1075600082E98FBB0000000027D1E5E4BE16B1F42C
:10757000960110C021BD2F5F3F4F832F992782BDF9
:10758000C050DF4F888180BDF4E0FFBB82E08FBB3D
:10759000CF5FD040CE15DF0568F3DBC0C114D10446
:1075A00009F04EC06091000170910101872F90E0B9
:1075B000982F8827262F30E0822B932B90938501DC
:1075C000809384014091020150910301852F90E046
:1075D000982F8827242F30E0822B932B90938701BC
:1075E00080938601209118018091190190E0982FD5
:1075F000882730E0822B932B909389018093880118
:1076000020911A0180911B0190E0982F882730E08B
:10761000822B932B90938B0180938A0160931801A6
:107620007093190140931A0150931B018CE08093D1
:107630000001A092010110920201EAE3E09303012C
:10764000E0E0F1E011BC808180BD81E081BD8181FD
:1076500080BD82E081BD828180BD83E081BD838168
:1076600080BD8E2F8C0D81BD84EA8FBB82EA8FBBDB
:10767000349681E0E038F80729F77CC0843709F0B8
:107680006BC083D090E0F82EEE247FD0E80EF11C82
:107690007CD0182F91D0153489F4E6018701C1BD43
:1076A00021968D2F992782BDE1E0EFBB00000000FD
:1076B00080B563D00150104091F74BC0E6018701BF
:1076C000209729F480918401909185013CC0C130BC
:1076D000D10529F480918401909185010FC0C230B9
:1076E000D10529F480918601909187012CC0C33087
:1076F000D10539F48091860190918701892F9927CE
:1077000022C0C831D10529F4809188019091890166
:107710001AC0C931D10529F480918801909189015D
:10772000EDCFCA31D10529F480918A0190918B0166
:107730000AC0CB31D10529F480918A0190918B0147
:10774000DDCFFE018491219618D00150104009F040
:10775000B7CFCE0CDF1C0EC0853739F42DD08EE1AB
:107760000CD085E90AD08FE09FCE813511F48CE0F2
:107770001DD022D080E101D08ACE982F8091C00008
:1077800085FFFCCF9093C60008958091C00087FFCD
:10779000FCCF8091C00084FD01C0A8958091C600F7
:1077A00008959AE29A95F1F708950895E0E6F0E0D9
:1077B00098E1908380830895E8DF803219F08DE0AE
:1077C000F5DFFFCF84E1D9CF1F93182FDEDF1150F3
:1077D000E9F7F2DF1F910895282E80E0E7DFECE063
:0477E000FF270994E2
:0277FE00000584
:040000030000740085
:00000001FF
