:100000000C9434000C943E000C943E000C943E0082
:100010000C943E000C943E000C943E000C943E0068
:100020000C943E000C943E000C943E000C943E0058
:100030000C943E000C943E000C943E000C943E0048
:100040000C943E000C943E000C9440000C943E0036
:100050000C943E000C943E000C943E000C943E0028
:100060000C943E000C943E0011241FBECFEFD8E04C
:10007000DEBFCDBF0E9456000C9478000C940000A7
:100080001F920F920FB60F9211248F939F9390910E
:10009000C6008091C00085FFFCCF9093C6009F9161
:1000A0008F910F900FBE0F901F9018958CEB80933F
:1000B000660081E880936100809361000E94650082
:1000C000789483E70E947000FFCF83E38093C4009D
:1000D0001092C500E1ECF0E080818869808308958A
:1000E000982F8091C00085FFFCCF9093C6000895A3
:0400F000F894FFCFB2
:00000001FF
